{
  "_format": "hh-sol-artifact-1",
  "contractName": "MyEpicNFT",
  "sourceName": "contracts/MyEpicNft.sol",
  "abi": [
    {
      "inputs": [],
      "stateMutability": "nonpayable",
      "type": "constructor"
    },
    {
      "anonymous": false,
      "inputs": [
        {
          "indexed": true,
          "internalType": "address",
          "name": "owner",
          "type": "address"
        },
        {
          "indexed": true,
          "internalType": "address",
          "name": "approved",
          "type": "address"
        },
        {
          "indexed": true,
          "internalType": "uint256",
          "name": "tokenId",
          "type": "uint256"
        }
      ],
      "name": "Approval",
      "type": "event"
    },
    {
      "anonymous": false,
      "inputs": [
        {
          "indexed": true,
          "internalType": "address",
          "name": "owner",
          "type": "address"
        },
        {
          "indexed": true,
          "internalType": "address",
          "name": "operator",
          "type": "address"
        },
        {
          "indexed": false,
          "internalType": "bool",
          "name": "approved",
          "type": "bool"
        }
      ],
      "name": "ApprovalForAll",
      "type": "event"
    },
    {
      "anonymous": false,
      "inputs": [
        {
          "indexed": false,
          "internalType": "address",
          "name": "sender",
          "type": "address"
        },
        {
          "indexed": false,
          "internalType": "uint256",
          "name": "tokenId",
          "type": "uint256"
        }
      ],
      "name": "NewEpicNFTMinted",
      "type": "event"
    },
    {
      "anonymous": false,
      "inputs": [
        {
          "indexed": true,
          "internalType": "address",
          "name": "from",
          "type": "address"
        },
        {
          "indexed": true,
          "internalType": "address",
          "name": "to",
          "type": "address"
        },
        {
          "indexed": true,
          "internalType": "uint256",
          "name": "tokenId",
          "type": "uint256"
        }
      ],
      "name": "Transfer",
      "type": "event"
    },
    {
      "inputs": [],
      "name": "_tokenTotal",
      "outputs": [
        {
          "internalType": "uint256",
          "name": "_value",
          "type": "uint256"
        }
      ],
      "stateMutability": "view",
      "type": "function"
    },
    {
      "inputs": [
        {
          "internalType": "address",
          "name": "to",
          "type": "address"
        },
        {
          "internalType": "uint256",
          "name": "tokenId",
          "type": "uint256"
        }
      ],
      "name": "approve",
      "outputs": [],
      "stateMutability": "nonpayable",
      "type": "function"
    },
    {
      "inputs": [
        {
          "internalType": "address",
          "name": "owner",
          "type": "address"
        }
      ],
      "name": "balanceOf",
      "outputs": [
        {
          "internalType": "uint256",
          "name": "",
          "type": "uint256"
        }
      ],
      "stateMutability": "view",
      "type": "function"
    },
    {
      "inputs": [
        {
          "internalType": "uint256",
          "name": "tokenId",
          "type": "uint256"
        }
      ],
      "name": "getApproved",
      "outputs": [
        {
          "internalType": "address",
          "name": "",
          "type": "address"
        }
      ],
      "stateMutability": "view",
      "type": "function"
    },
    {
      "inputs": [],
      "name": "getTotalNFTsMintedSoFar",
      "outputs": [
        {
          "internalType": "uint256",
          "name": "",
          "type": "uint256"
        }
      ],
      "stateMutability": "view",
      "type": "function"
    },
    {
      "inputs": [
        {
          "internalType": "address",
          "name": "owner",
          "type": "address"
        },
        {
          "internalType": "address",
          "name": "operator",
          "type": "address"
        }
      ],
      "name": "isApprovedForAll",
      "outputs": [
        {
          "internalType": "bool",
          "name": "",
          "type": "bool"
        }
      ],
      "stateMutability": "view",
      "type": "function"
    },
    {
      "inputs": [],
      "name": "makeAnEpicNFT",
      "outputs": [],
      "stateMutability": "nonpayable",
      "type": "function"
    },
    {
      "inputs": [],
      "name": "name",
      "outputs": [
        {
          "internalType": "string",
          "name": "",
          "type": "string"
        }
      ],
      "stateMutability": "view",
      "type": "function"
    },
    {
      "inputs": [
        {
          "internalType": "uint256",
          "name": "tokenId",
          "type": "uint256"
        }
      ],
      "name": "ownerOf",
      "outputs": [
        {
          "internalType": "address",
          "name": "",
          "type": "address"
        }
      ],
      "stateMutability": "view",
      "type": "function"
    },
    {
      "inputs": [
        {
          "internalType": "uint256",
          "name": "tokenId",
          "type": "uint256"
        }
      ],
      "name": "pickRandomFirstWord",
      "outputs": [
        {
          "internalType": "string",
          "name": "",
          "type": "string"
        }
      ],
      "stateMutability": "view",
      "type": "function"
    },
    {
      "inputs": [
        {
          "internalType": "uint256",
          "name": "tokenId",
          "type": "uint256"
        }
      ],
      "name": "pickRandomSecondWord",
      "outputs": [
        {
          "internalType": "string",
          "name": "",
          "type": "string"
        }
      ],
      "stateMutability": "view",
      "type": "function"
    },
    {
      "inputs": [
        {
          "internalType": "uint256",
          "name": "tokenId",
          "type": "uint256"
        }
      ],
      "name": "pickRandomThirdWord",
      "outputs": [
        {
          "internalType": "string",
          "name": "",
          "type": "string"
        }
      ],
      "stateMutability": "view",
      "type": "function"
    },
    {
      "inputs": [
        {
          "internalType": "address",
          "name": "from",
          "type": "address"
        },
        {
          "internalType": "address",
          "name": "to",
          "type": "address"
        },
        {
          "internalType": "uint256",
          "name": "tokenId",
          "type": "uint256"
        }
      ],
      "name": "safeTransferFrom",
      "outputs": [],
      "stateMutability": "nonpayable",
      "type": "function"
    },
    {
      "inputs": [
        {
          "internalType": "address",
          "name": "from",
          "type": "address"
        },
        {
          "internalType": "address",
          "name": "to",
          "type": "address"
        },
        {
          "internalType": "uint256",
          "name": "tokenId",
          "type": "uint256"
        },
        {
          "internalType": "bytes",
          "name": "data",
          "type": "bytes"
        }
      ],
      "name": "safeTransferFrom",
      "outputs": [],
      "stateMutability": "nonpayable",
      "type": "function"
    },
    {
      "inputs": [
        {
          "internalType": "address",
          "name": "operator",
          "type": "address"
        },
        {
          "internalType": "bool",
          "name": "approved",
          "type": "bool"
        }
      ],
      "name": "setApprovalForAll",
      "outputs": [],
      "stateMutability": "nonpayable",
      "type": "function"
    },
    {
      "inputs": [
        {
          "internalType": "bytes4",
          "name": "interfaceId",
          "type": "bytes4"
        }
      ],
      "name": "supportsInterface",
      "outputs": [
        {
          "internalType": "bool",
          "name": "",
          "type": "bool"
        }
      ],
      "stateMutability": "view",
      "type": "function"
    },
    {
      "inputs": [],
      "name": "symbol",
      "outputs": [
        {
          "internalType": "string",
          "name": "",
          "type": "string"
        }
      ],
      "stateMutability": "view",
      "type": "function"
    },
    {
      "inputs": [
        {
          "internalType": "uint256",
          "name": "tokenId",
          "type": "uint256"
        }
      ],
      "name": "tokenURI",
      "outputs": [
        {
          "internalType": "string",
          "name": "",
          "type": "string"
        }
      ],
      "stateMutability": "view",
      "type": "function"
    },
    {
      "inputs": [
        {
          "internalType": "address",
          "name": "from",
          "type": "address"
        },
        {
          "internalType": "address",
          "name": "to",
          "type": "address"
        },
        {
          "internalType": "uint256",
          "name": "tokenId",
          "type": "uint256"
        }
      ],
      "name": "transferFrom",
      "outputs": [],
      "stateMutability": "nonpayable",
      "type": "function"
    }
  ],
  "bytecode": "0x6080604052604051806102e001604052806102b481526020016200412d6102b4913960099080519060200190620000389291906200067e565b506040518060c001604052806040518060400160405280600481526020017f48756c6b0000000000000000000000000000000000000000000000000000000081525081526020016040518060400160405280600481526020017f54686f720000000000000000000000000000000000000000000000000000000081525081526020016040518060400160405280600d81526020017f50616e746572615f4e656772610000000000000000000000000000000000000081525081526020016040518060400160405280600881526020017f4d6572637572696f00000000000000000000000000000000000000000000000081525081526020016040518060400160405280600781526020017f4e6576617363610000000000000000000000000000000000000000000000000081525081526020016040518060400160405280600581526020017f57616e6461000000000000000000000000000000000000000000000000000000815250815250600a906006620001b69291906200070f565b506040518060c001604052806040518060400160405280600c81526020017f486f6d656d5f4172616e6861000000000000000000000000000000000000000081525081526020016040518060400160405280600781526020017f4e6f7475726e6f0000000000000000000000000000000000000000000000000081525081526020016040518060400160405280600781526020017f506f6c617269730000000000000000000000000000000000000000000000000081525081526020016040518060400160405280600681526020017f47616d626974000000000000000000000000000000000000000000000000000081525081526020016040518060400160405280600781526020017f56616d706972610000000000000000000000000000000000000000000000000081525081526020016040518060400160405280600781526020017f4369636c6f706500000000000000000000000000000000000000000000000000815250815250600b906006620003349291906200070f565b506040518060c001604052806040518060400160405280600781526020017f476c61637475730000000000000000000000000000000000000000000000000081525081526020016040518060400160405280600481526020017f4c6f6b690000000000000000000000000000000000000000000000000000000081525081526020016040518060400160405280600781526020017f456c656374726f0000000000000000000000000000000000000000000000000081525081526020016040518060400160405280600481526020017f52696e6f0000000000000000000000000000000000000000000000000000000081525081526020016040518060400160405280600681526020017f537572747572000000000000000000000000000000000000000000000000000081525081526020016040518060400160405280600681526020017f5468616e6f730000000000000000000000000000000000000000000000000000815250815250600c906006620004b29291906200070f565b50348015620004c057600080fd5b506040518060400160405280601381526020017f4d617276656c73204865726f2056696c61696e000000000000000000000000008152506040518060400160405280600381526020017f4d485600000000000000000000000000000000000000000000000000000000008152508160009080519060200190620005459291906200067e565b5080600190805190602001906200055e9291906200067e565b505050620005ac6040518060400160405280601681526020017f436f6e747261746f20696d706c616e7461646f2e2e2e00000000000000000000815250620005b260201b620010e21760201c565b62000930565b6200065281604051602401620005c9919062000844565b6040516020818303038152906040527f41304fac000000000000000000000000000000000000000000000000000000007bffffffffffffffffffffffffffffffffffffffffffffffffffffffff19166020820180517bffffffffffffffffffffffffffffffffffffffffffffffffffffffff83818316178352505050506200065560201b60201c565b50565b60008151905060006a636f6e736f6c652e6c6f679050602083016000808483855afa5050505050565b8280546200068c90620008ba565b90600052602060002090601f016020900481019282620006b05760008555620006fc565b82601f10620006cb57805160ff1916838001178555620006fc565b82800160010185558215620006fc579182015b82811115620006fb578251825591602001919060010190620006de565b5b5090506200070b919062000776565b5090565b82805482825590600052602060002090810192821562000763579160200282015b8281111562000762578251829080519060200190620007519291906200067e565b509160200191906001019062000730565b5b50905062000772919062000795565b5090565b5b808211156200079157600081600090555060010162000777565b5090565b5b80821115620007b95760008181620007af9190620007bd565b5060010162000796565b5090565b508054620007cb90620008ba565b6000825580601f10620007df575062000800565b601f016020900490600052602060002090810190620007ff919062000776565b5b50565b6000620008108262000868565b6200081c818562000873565b93506200082e81856020860162000884565b62000839816200091f565b840191505092915050565b6000602082019050818103600083015262000860818462000803565b905092915050565b600081519050919050565b600082825260208201905092915050565b60005b83811015620008a457808201518184015260208101905062000887565b83811115620008b4576000848401525b50505050565b60006002820490506001821680620008d357607f821691505b60208210811415620008ea57620008e9620008f0565b5b50919050565b7f4e487b7100000000000000000000000000000000000000000000000000000000600052602260045260246000fd5b6000601f19601f8301169050919050565b6137ed80620009406000396000f3fe608060405234801561001057600080fd5b50600436106101215760003560e01c806370a08231116100ad578063c575757a11610071578063c575757a1461032c578063c87b56dd1461035c578063dd37b7081461038c578063de9d132f146103aa578063e985e9c5146103b457610121565b806370a082311461027657806395d89b41146102a6578063a22cb465146102c4578063b187301f146102e0578063b88d4fde1461031057610121565b8063095ea7b3116100f4578063095ea7b3146101c257806323b872dd146101de5780632de38d68146101fa57806342842e0e1461022a5780636352211e1461024657610121565b806301ffc9a714610126578063060475901461015657806306fdde0314610174578063081812fc14610192575b600080fd5b610140600480360381019061013b919061256a565b6103e4565b60405161014d9190612be8565b60405180910390f35b61015e6104c6565b60405161016b9190612de3565b60405180910390f35b61017c6104d7565b6040516101899190612c03565b60405180910390f35b6101ac60048036038101906101a791906125bc565b610569565b6040516101b99190612b58565b60405180910390f35b6101dc60048036038101906101d7919061252e565b6105af565b005b6101f860048036038101906101f39190612428565b6106c7565b005b610214600480360381019061020f91906125bc565b610727565b6040516102219190612c03565b60405180910390f35b610244600480360381019061023f9190612428565b610845565b005b610260600480360381019061025b91906125bc565b610865565b60405161026d9190612b58565b60405180910390f35b610290600480360381019061028b91906123c3565b610917565b60405161029d9190612de3565b60405180910390f35b6102ae6109cf565b6040516102bb9190612c03565b60405180910390f35b6102de60048036038101906102d991906124f2565b610a61565b005b6102fa60048036038101906102f591906125bc565b610a77565b6040516103079190612c03565b60405180910390f35b61032a60048036038101906103259190612477565b610b95565b005b610346600480360381019061034191906125bc565b610bf7565b6040516103539190612c03565b60405180910390f35b610376600480360381019061037191906125bc565b610d15565b6040516103839190612c03565b60405180910390f35b610394610e28565b6040516103a19190612de3565b60405180910390f35b6103b2610e34565b005b6103ce60048036038101906103c991906123ec565b61104e565b6040516103db9190612be8565b60405180910390f35b60007f80ac58cd000000000000000000000000000000000000000000000000000000007bffffffffffffffffffffffffffffffffffffffffffffffffffffffff1916827bffffffffffffffffffffffffffffffffffffffffffffffffffffffff191614806104af57507f5b5e139f000000000000000000000000000000000000000000000000000000007bffffffffffffffffffffffffffffffffffffffffffffffffffffffff1916827bffffffffffffffffffffffffffffffffffffffffffffffffffffffff1916145b806104bf57506104be8261117b565b5b9050919050565b60006104d260086111e5565b905090565b6060600080546104e690613077565b80601f016020809104026020016040519081016040528092919081815260200182805461051290613077565b801561055f5780601f106105345761010080835404028352916020019161055f565b820191906000526020600020905b81548152906001019060200180831161054257829003601f168201915b5050505050905090565b6000610574826111f3565b6004600083815260200190815260200160002060009054906101000a900473ffffffffffffffffffffffffffffffffffffffff169050919050565b60006105ba82610865565b90508073ffffffffffffffffffffffffffffffffffffffff168373ffffffffffffffffffffffffffffffffffffffff16141561062b576040517f08c379a000000000000000000000000000000000000000000000000000000000815260040161062290612da3565b60405180910390fd5b8073ffffffffffffffffffffffffffffffffffffffff1661064a61123e565b73ffffffffffffffffffffffffffffffffffffffff16148061067957506106788161067361123e565b61104e565b5b6106b8576040517f08c379a00000000000000000000000000000000000000000000000000000000081526004016106af90612d43565b60405180910390fd5b6106c28383611246565b505050565b6106d86106d261123e565b826112ff565b610717576040517f08c379a000000000000000000000000000000000000000000000000000000000815260040161070e90612dc3565b60405180910390fd5b610722838383611394565b505050565b6060600061075b610737846115fb565b6040516020016107479190612aad565b6040516020818303038152906040526117a8565b9050600a805490508161076e9190613123565b9050600a81815481106107aa577f4e487b7100000000000000000000000000000000000000000000000000000000600052603260045260246000fd5b9060005260206000200180546107bf90613077565b80601f01602080910402602001604051908101604052809291908181526020018280546107eb90613077565b80156108385780601f1061080d57610100808354040283529160200191610838565b820191906000526020600020905b81548152906001019060200180831161081b57829003601f168201915b5050505050915050919050565b61086083838360405180602001604052806000815250610b95565b505050565b6000806002600084815260200190815260200160002060009054906101000a900473ffffffffffffffffffffffffffffffffffffffff169050600073ffffffffffffffffffffffffffffffffffffffff168173ffffffffffffffffffffffffffffffffffffffff16141561090e576040517f08c379a000000000000000000000000000000000000000000000000000000000815260040161090590612d83565b60405180910390fd5b80915050919050565b60008073ffffffffffffffffffffffffffffffffffffffff168273ffffffffffffffffffffffffffffffffffffffff161415610988576040517f08c379a000000000000000000000000000000000000000000000000000000000815260040161097f90612d03565b60405180910390fd5b600360008373ffffffffffffffffffffffffffffffffffffffff1673ffffffffffffffffffffffffffffffffffffffff168152602001908152602001600020549050919050565b6060600180546109de90613077565b80601f0160208091040260200160405190810160405280929190818152602001828054610a0a90613077565b8015610a575780601f10610a2c57610100808354040283529160200191610a57565b820191906000526020600020905b815481529060010190602001808311610a3a57829003601f168201915b5050505050905090565b610a73610a6c61123e565b83836117db565b5050565b60606000610aab610a87846115fb565b604051602001610a979190612a8b565b6040516020818303038152906040526117a8565b9050600b8054905081610abe9190613123565b9050600b8181548110610afa577f4e487b7100000000000000000000000000000000000000000000000000000000600052603260045260246000fd5b906000526020600020018054610b0f90613077565b80601f0160208091040260200160405190810160405280929190818152602001828054610b3b90613077565b8015610b885780601f10610b5d57610100808354040283529160200191610b88565b820191906000526020600020905b815481529060010190602001808311610b6b57829003601f168201915b5050505050915050919050565b610ba6610ba061123e565b836112ff565b610be5576040517f08c379a0000000000000000000000000000000000000000000000000000000008152600401610bdc90612dc3565b60405180910390fd5b610bf184848484611948565b50505050565b60606000610c2b610c07846115fb565b604051602001610c179190612acf565b6040516020818303038152906040526117a8565b9050600c8054905081610c3e9190613123565b9050600c8181548110610c7a577f4e487b7100000000000000000000000000000000000000000000000000000000600052603260045260246000fd5b906000526020600020018054610c8f90613077565b80601f0160208091040260200160405190810160405280929190818152602001828054610cbb90613077565b8015610d085780601f10610cdd57610100808354040283529160200191610d08565b820191906000526020600020905b815481529060010190602001808311610ceb57829003601f168201915b5050505050915050919050565b6060610d20826111f3565b6000600660008481526020019081526020016000208054610d4090613077565b80601f0160208091040260200160405190810160405280929190818152602001828054610d6c90613077565b8015610db95780601f10610d8e57610100808354040283529160200191610db9565b820191906000526020600020905b815481529060010190602001808311610d9c57829003601f168201915b505050505090506000610dca6119a4565b9050600081511415610de0578192505050610e23565b600082511115610e15578082604051602001610dfd929190612a07565b60405160208183030381529060405292505050610e23565b610e1e846119bb565b925050505b919050565b60088060000154905081565b6032610e4060076111e5565b1115610e4b57600080fd5b6000610e5760076111e5565b90506000610e6482610727565b90506000610e7183610a77565b90506000610e7e84610bf7565b90506000838383604051602001610e9793929190612a2b565b60405160208183030381529060405290506000600982604051602001610ebe929190612a5c565b60405160208183030381529060405290506000610f0383610ede84611a23565b604051602001610eef929190612af1565b604051602081830303815290604052611a23565b9050600081604051602001610f189190612b36565b6040516020818303038152906040529050610f676040518060400160405280601581526020017f0a2d2d2d2d2d2d2d2d2d2d2d2d2d2d2d2d2d2d2d2d00000000000000000000008152506110e2565b610f70816110e2565b610fae6040518060400160405280601581526020017f2d2d2d2d2d2d2d2d2d2d2d2d2d2d2d2d2d2d2d2d0a00000000000000000000008152506110e2565b610fb83389611be1565b610fc28882611bff565b610fcc6007611c73565b610fd66008611c73565b610ff9604051806060016040528060248152602001613754602491398933611c89565b61100b61100660086111e5565b611d28565b7febb98688741ffa4c7589bf325de30cf7becb63de567842e1ccdb6cb949fdc82c338960405161103c929190612bbf565b60405180910390a15050505050505050565b6000600560008473ffffffffffffffffffffffffffffffffffffffff1673ffffffffffffffffffffffffffffffffffffffff16815260200190815260200160002060008373ffffffffffffffffffffffffffffffffffffffff1673ffffffffffffffffffffffffffffffffffffffff16815260200190815260200160002060009054906101000a900460ff16905092915050565b611178816040516024016110f69190612c03565b6040516020818303038152906040527f41304fac000000000000000000000000000000000000000000000000000000007bffffffffffffffffffffffffffffffffffffffffffffffffffffffff19166020820180517bffffffffffffffffffffffffffffffffffffffffffffffffffffffff8381831617835250505050611dc1565b50565b60007f01ffc9a7000000000000000000000000000000000000000000000000000000007bffffffffffffffffffffffffffffffffffffffffffffffffffffffff1916827bffffffffffffffffffffffffffffffffffffffffffffffffffffffff1916149050919050565b600081600001549050919050565b6111fc81611dea565b61123b576040517f08c379a000000000000000000000000000000000000000000000000000000000815260040161123290612d83565b60405180910390fd5b50565b600033905090565b816004600083815260200190815260200160002060006101000a81548173ffffffffffffffffffffffffffffffffffffffff021916908373ffffffffffffffffffffffffffffffffffffffff160217905550808273ffffffffffffffffffffffffffffffffffffffff166112b983610865565b73ffffffffffffffffffffffffffffffffffffffff167f8c5be1e5ebec7d5bd14f71427d1e84f3dd0314c0f7b2291e5b200ac8c7c3b92560405160405180910390a45050565b60008061130b83610865565b90508073ffffffffffffffffffffffffffffffffffffffff168473ffffffffffffffffffffffffffffffffffffffff16148061134d575061134c818561104e565b5b8061138b57508373ffffffffffffffffffffffffffffffffffffffff1661137384610569565b73ffffffffffffffffffffffffffffffffffffffff16145b91505092915050565b8273ffffffffffffffffffffffffffffffffffffffff166113b482610865565b73ffffffffffffffffffffffffffffffffffffffff161461140a576040517f08c379a000000000000000000000000000000000000000000000000000000000815260040161140190612c83565b60405180910390fd5b600073ffffffffffffffffffffffffffffffffffffffff168273ffffffffffffffffffffffffffffffffffffffff16141561147a576040517f08c379a000000000000000000000000000000000000000000000000000000000815260040161147190612cc3565b60405180910390fd5b611485838383611e56565b611490600082611246565b6001600360008573ffffffffffffffffffffffffffffffffffffffff1673ffffffffffffffffffffffffffffffffffffffff16815260200190815260200160002060008282546114e09190612f8d565b925050819055506001600360008473ffffffffffffffffffffffffffffffffffffffff1673ffffffffffffffffffffffffffffffffffffffff16815260200190815260200160002060008282546115379190612eac565b92505081905550816002600083815260200190815260200160002060006101000a81548173ffffffffffffffffffffffffffffffffffffffff021916908373ffffffffffffffffffffffffffffffffffffffff160217905550808273ffffffffffffffffffffffffffffffffffffffff168473ffffffffffffffffffffffffffffffffffffffff167fddf252ad1be2c89b69c2b068fc378daa952ba7f163c4a11628f55a4df523b3ef60405160405180910390a46115f6838383611e5b565b505050565b60606000821415611643576040518060400160405280600181526020017f300000000000000000000000000000000000000000000000000000000000000081525090506117a3565b600082905060005b6000821461167557808061165e906130da565b915050600a8261166e9190612f02565b915061164b565b60008167ffffffffffffffff8111156116b7577f4e487b7100000000000000000000000000000000000000000000000000000000600052604160045260246000fd5b6040519080825280601f01601f1916602001820160405280156116e95781602001600182028036833780820191505090505b5090505b6000851461179c576001826117029190612f8d565b9150600a856117119190613123565b603061171d9190612eac565b60f81b818381518110611759577f4e487b7100000000000000000000000000000000000000000000000000000000600052603260045260246000fd5b60200101907effffffffffffffffffffffffffffffffffffffffffffffffffffffffffffff1916908160001a905350600a856117959190612f02565b94506116ed565b8093505050505b919050565b6000816040516020016117bb91906129f0565b6040516020818303038152906040528051906020012060001c9050919050565b8173ffffffffffffffffffffffffffffffffffffffff168373ffffffffffffffffffffffffffffffffffffffff16141561184a576040517f08c379a000000000000000000000000000000000000000000000000000000000815260040161184190612ce3565b60405180910390fd5b80600560008573ffffffffffffffffffffffffffffffffffffffff1673ffffffffffffffffffffffffffffffffffffffff16815260200190815260200160002060008473ffffffffffffffffffffffffffffffffffffffff1673ffffffffffffffffffffffffffffffffffffffff16815260200190815260200160002060006101000a81548160ff0219169083151502179055508173ffffffffffffffffffffffffffffffffffffffff168373ffffffffffffffffffffffffffffffffffffffff167f17307eab39ab6107e8899845ad3d59bd9653f200f220920489ca2b5937696c318360405161193b9190612be8565b60405180910390a3505050565b611953848484611394565b61195f84848484611e60565b61199e576040517f08c379a000000000000000000000000000000000000000000000000000000000815260040161199590612c63565b60405180910390fd5b50505050565b606060405180602001604052806000815250905090565b60606119c6826111f3565b60006119d06119a4565b905060008151116119f05760405180602001604052806000815250611a1b565b806119fa846115fb565b604051602001611a0b929190612a07565b6040516020818303038152906040525b915050919050565b60606000825190506000811415611a4c5760405180602001604052806000815250915050611bdc565b60006003600283611a5d9190612eac565b611a679190612f02565b6004611a739190612f33565b90506000602082611a849190612eac565b67ffffffffffffffff811115611ac3577f4e487b7100000000000000000000000000000000000000000000000000000000600052604160045260246000fd5b6040519080825280601f01601f191660200182016040528015611af55781602001600182028036833780820191505090505b5090506000604051806060016040528060408152602001613778604091399050600181016020830160005b86811015611b995760038101905062ffffff818a015116603f8160121c168401518060081b905060ff603f83600c1c1686015116810190508060081b905060ff603f8360061c1686015116810190508060081b905060ff603f831686015116810190508060e01b90508084526004840193505050611b20565b506003860660018114611bb35760028114611bc357611bce565b613d3d60f01b6002830352611bce565b603d60f81b60018303525b508484525050819450505050505b919050565b611bfb828260405180602001604052806000815250611ff7565b5050565b611c0882611dea565b611c47576040517f08c379a0000000000000000000000000000000000000000000000000000000008152600401611c3e90612d23565b60405180910390fd5b80600660008481526020019081526020016000209080519060200190611c6e92919061224f565b505050565b6001816000016000828254019250508190555050565b611d23838383604051602401611ca193929190612c25565b6040516020818303038152906040527fe3849f79000000000000000000000000000000000000000000000000000000007bffffffffffffffffffffffffffffffffffffffffffffffffffffffff19166020820180517bffffffffffffffffffffffffffffffffffffffffffffffffffffffff8381831617835250505050611dc1565b505050565b611dbe81604051602401611d3c9190612de3565b6040516020818303038152906040527ff5b1bba9000000000000000000000000000000000000000000000000000000007bffffffffffffffffffffffffffffffffffffffffffffffffffffffff19166020820180517bffffffffffffffffffffffffffffffffffffffffffffffffffffffff8381831617835250505050611dc1565b50565b60008151905060006a636f6e736f6c652e6c6f679050602083016000808483855afa5050505050565b60008073ffffffffffffffffffffffffffffffffffffffff166002600084815260200190815260200160002060009054906101000a900473ffffffffffffffffffffffffffffffffffffffff1673ffffffffffffffffffffffffffffffffffffffff1614159050919050565b505050565b505050565b6000611e818473ffffffffffffffffffffffffffffffffffffffff16612052565b15611fea578373ffffffffffffffffffffffffffffffffffffffff1663150b7a02611eaa61123e565b8786866040518563ffffffff1660e01b8152600401611ecc9493929190612b73565b602060405180830381600087803b158015611ee657600080fd5b505af1925050508015611f1757506040513d601f19601f82011682018060405250810190611f149190612593565b60015b611f9a573d8060008114611f47576040519150601f19603f3d011682016040523d82523d6000602084013e611f4c565b606091505b50600081511415611f92576040517f08c379a0000000000000000000000000000000000000000000000000000000008152600401611f8990612c63565b60405180910390fd5b805181602001fd5b63150b7a0260e01b7bffffffffffffffffffffffffffffffffffffffffffffffffffffffff1916817bffffffffffffffffffffffffffffffffffffffffffffffffffffffff191614915050611fef565b600190505b949350505050565b6120018383612075565b61200e6000848484611e60565b61204d576040517f08c379a000000000000000000000000000000000000000000000000000000000815260040161204490612c63565b60405180910390fd5b505050565b6000808273ffffffffffffffffffffffffffffffffffffffff163b119050919050565b600073ffffffffffffffffffffffffffffffffffffffff168273ffffffffffffffffffffffffffffffffffffffff1614156120e5576040517f08c379a00000000000000000000000000000000000000000000000000000000081526004016120dc90612d63565b60405180910390fd5b6120ee81611dea565b1561212e576040517f08c379a000000000000000000000000000000000000000000000000000000000815260040161212590612ca3565b60405180910390fd5b61213a60008383611e56565b6001600360008473ffffffffffffffffffffffffffffffffffffffff1673ffffffffffffffffffffffffffffffffffffffff168152602001908152602001600020600082825461218a9190612eac565b92505081905550816002600083815260200190815260200160002060006101000a81548173ffffffffffffffffffffffffffffffffffffffff021916908373ffffffffffffffffffffffffffffffffffffffff160217905550808273ffffffffffffffffffffffffffffffffffffffff16600073ffffffffffffffffffffffffffffffffffffffff167fddf252ad1be2c89b69c2b068fc378daa952ba7f163c4a11628f55a4df523b3ef60405160405180910390a461224b60008383611e5b565b5050565b82805461225b90613077565b90600052602060002090601f01602090048101928261227d57600085556122c4565b82601f1061229657805160ff19168380011785556122c4565b828001600101855582156122c4579182015b828111156122c35782518255916020019190600101906122a8565b5b5090506122d191906122d5565b5090565b5b808211156122ee5760008160009055506001016122d6565b5090565b600061230561230084612e23565b612dfe565b90508281526020810184848401111561231d57600080fd5b612328848285613035565b509392505050565b60008135905061233f816136f7565b92915050565b6000813590506123548161370e565b92915050565b60008135905061236981613725565b92915050565b60008151905061237e81613725565b92915050565b600082601f83011261239557600080fd5b81356123a58482602086016122f2565b91505092915050565b6000813590506123bd8161373c565b92915050565b6000602082840312156123d557600080fd5b60006123e384828501612330565b91505092915050565b600080604083850312156123ff57600080fd5b600061240d85828601612330565b925050602061241e85828601612330565b9150509250929050565b60008060006060848603121561243d57600080fd5b600061244b86828701612330565b935050602061245c86828701612330565b925050604061246d868287016123ae565b9150509250925092565b6000806000806080858703121561248d57600080fd5b600061249b87828801612330565b94505060206124ac87828801612330565b93505060406124bd878288016123ae565b925050606085013567ffffffffffffffff8111156124da57600080fd5b6124e687828801612384565b91505092959194509250565b6000806040838503121561250557600080fd5b600061251385828601612330565b925050602061252485828601612345565b9150509250929050565b6000806040838503121561254157600080fd5b600061254f85828601612330565b9250506020612560858286016123ae565b9150509250929050565b60006020828403121561257c57600080fd5b600061258a8482850161235a565b91505092915050565b6000602082840312156125a557600080fd5b60006125b38482850161236f565b91505092915050565b6000602082840312156125ce57600080fd5b60006125dc848285016123ae565b91505092915050565b6125ee81612fc1565b82525050565b6125fd81612fd3565b82525050565b600061260e82612e69565b6126188185612e7f565b9350612628818560208601613044565b61263181613210565b840191505092915050565b600061264782612e74565b6126518185612e90565b9350612661818560208601613044565b61266a81613210565b840191505092915050565b600061268082612e74565b61268a8185612ea1565b935061269a818560208601613044565b80840191505092915050565b600081546126b381613077565b6126bd8186612ea1565b945060018216600081146126d857600181146126e95761271c565b60ff1983168652818601935061271c565b6126f285612e54565b60005b83811015612714578154818901526001820191506020810190506126f5565b838801955050505b50505092915050565b6000612732603283612e90565b915061273d82613221565b604082019050919050565b6000612755602583612e90565b915061276082613270565b604082019050919050565b6000612778601c83612e90565b9150612783826132bf565b602082019050919050565b600061279b602483612e90565b91506127a6826132e8565b604082019050919050565b60006127be601983612e90565b91506127c982613337565b602082019050919050565b60006127e1600f83612ea1565b91506127ec82613360565b600f82019050919050565b6000612804600d83612ea1565b915061280f82613389565b600d82019050919050565b6000612827602983612e90565b9150612832826133b2565b604082019050919050565b600061284a601083612ea1565b915061285582613401565b601082019050919050565b600061286d602e83612e90565b91506128788261342a565b604082019050919050565b6000612890600283612ea1565b915061289b82613479565b600282019050919050565b60006128b3603e83612e90565b91506128be826134a2565b604082019050919050565b60006128d6602083612e90565b91506128e1826134f1565b602082019050919050565b60006128f9601083612ea1565b91506129048261351a565b601082019050919050565b600061291c600a83612ea1565b915061292782613543565b600a82019050919050565b600061293f601883612e90565b915061294a8261356c565b602082019050919050565b6000612962602183612e90565b915061296d82613595565b604082019050919050565b6000612985601d83612ea1565b9150612990826135e4565b601d82019050919050565b60006129a8602e83612e90565b91506129b38261360d565b604082019050919050565b60006129cb606d83612ea1565b91506129d68261365c565b606d82019050919050565b6129ea8161302b565b82525050565b60006129fc8284612675565b915081905092915050565b6000612a138285612675565b9150612a1f8284612675565b91508190509392505050565b6000612a378286612675565b9150612a438285612675565b9150612a4f8284612675565b9150819050949350505050565b6000612a6882856126a6565b9150612a748284612675565b9150612a7f826127f7565b91508190509392505050565b6000612a96826127d4565b9150612aa28284612675565b915081905092915050565b6000612ab88261283d565b9150612ac48284612675565b915081905092915050565b6000612ada826128ec565b9150612ae68284612675565b915081905092915050565b6000612afc8261290f565b9150612b088285612675565b9150612b13826129be565b9150612b1f8284612675565b9150612b2a82612883565b91508190509392505050565b6000612b4182612978565b9150612b4d8284612675565b915081905092915050565b6000602082019050612b6d60008301846125e5565b92915050565b6000608082019050612b8860008301876125e5565b612b9560208301866125e5565b612ba260408301856129e1565b8181036060830152612bb48184612603565b905095945050505050565b6000604082019050612bd460008301856125e5565b612be160208301846129e1565b9392505050565b6000602082019050612bfd60008301846125f4565b92915050565b60006020820190508181036000830152612c1d818461263c565b905092915050565b60006060820190508181036000830152612c3f818661263c565b9050612c4e60208301856129e1565b612c5b60408301846125e5565b949350505050565b60006020820190508181036000830152612c7c81612725565b9050919050565b60006020820190508181036000830152612c9c81612748565b9050919050565b60006020820190508181036000830152612cbc8161276b565b9050919050565b60006020820190508181036000830152612cdc8161278e565b9050919050565b60006020820190508181036000830152612cfc816127b1565b9050919050565b60006020820190508181036000830152612d1c8161281a565b9050919050565b60006020820190508181036000830152612d3c81612860565b9050919050565b60006020820190508181036000830152612d5c816128a6565b9050919050565b60006020820190508181036000830152612d7c816128c9565b9050919050565b60006020820190508181036000830152612d9c81612932565b9050919050565b60006020820190508181036000830152612dbc81612955565b9050919050565b60006020820190508181036000830152612ddc8161299b565b9050919050565b6000602082019050612df860008301846129e1565b92915050565b6000612e08612e19565b9050612e1482826130a9565b919050565b6000604051905090565b600067ffffffffffffffff821115612e3e57612e3d6131e1565b5b612e4782613210565b9050602081019050919050565b60008190508160005260206000209050919050565b600081519050919050565b600081519050919050565b600082825260208201905092915050565b600082825260208201905092915050565b600081905092915050565b6000612eb78261302b565b9150612ec28361302b565b9250827fffffffffffffffffffffffffffffffffffffffffffffffffffffffffffffffff03821115612ef757612ef6613154565b5b828201905092915050565b6000612f0d8261302b565b9150612f188361302b565b925082612f2857612f27613183565b5b828204905092915050565b6000612f3e8261302b565b9150612f498361302b565b9250817fffffffffffffffffffffffffffffffffffffffffffffffffffffffffffffffff0483118215151615612f8257612f81613154565b5b828202905092915050565b6000612f988261302b565b9150612fa38361302b565b925082821015612fb657612fb5613154565b5b828203905092915050565b6000612fcc8261300b565b9050919050565b60008115159050919050565b60007fffffffff0000000000000000000000000000000000000000000000000000000082169050919050565b600073ffffffffffffffffffffffffffffffffffffffff82169050919050565b6000819050919050565b82818337600083830152505050565b60005b83811015613062578082015181840152602081019050613047565b83811115613071576000848401525b50505050565b6000600282049050600182168061308f57607f821691505b602082108114156130a3576130a26131b2565b5b50919050565b6130b282613210565b810181811067ffffffffffffffff821117156130d1576130d06131e1565b5b80604052505050565b60006130e58261302b565b91507fffffffffffffffffffffffffffffffffffffffffffffffffffffffffffffffff82141561311857613117613154565b5b600182019050919050565b600061312e8261302b565b91506131398361302b565b92508261314957613148613183565b5b828206905092915050565b7f4e487b7100000000000000000000000000000000000000000000000000000000600052601160045260246000fd5b7f4e487b7100000000000000000000000000000000000000000000000000000000600052601260045260246000fd5b7f4e487b7100000000000000000000000000000000000000000000000000000000600052602260045260246000fd5b7f4e487b7100000000000000000000000000000000000000000000000000000000600052604160045260246000fd5b6000601f19601f8301169050919050565b7f4552433732313a207472616e7366657220746f206e6f6e20455243373231526560008201527f63656976657220696d706c656d656e7465720000000000000000000000000000602082015250565b7f4552433732313a207472616e736665722066726f6d20696e636f72726563742060008201527f6f776e6572000000000000000000000000000000000000000000000000000000602082015250565b7f4552433732313a20746f6b656e20616c7265616479206d696e74656400000000600082015250565b7f4552433732313a207472616e7366657220746f20746865207a65726f2061646460008201527f7265737300000000000000000000000000000000000000000000000000000000602082015250565b7f4552433732313a20617070726f766520746f2063616c6c657200000000000000600082015250565b7f534547554e44415f50414c415652410000000000000000000000000000000000600082015250565b7f3c2f746578743e3c2f7376673e00000000000000000000000000000000000000600082015250565b7f4552433732313a2061646472657373207a65726f206973206e6f74206120766160008201527f6c6964206f776e65720000000000000000000000000000000000000000000000602082015250565b7f5052494d454952415f50414c4156524100000000000000000000000000000000600082015250565b7f45524337323155524953746f726167653a2055524920736574206f66206e6f6e60008201527f6578697374656e7420746f6b656e000000000000000000000000000000000000602082015250565b7f227d000000000000000000000000000000000000000000000000000000000000600082015250565b7f4552433732313a20617070726f76652063616c6c6572206973206e6f7420746f60008201527f6b656e206f776e6572206e6f7220617070726f76656420666f7220616c6c0000602082015250565b7f4552433732313a206d696e7420746f20746865207a65726f2061646472657373600082015250565b7f54455243454952415f50414c4156524100000000000000000000000000000000600082015250565b7f7b226e616d65223a202200000000000000000000000000000000000000000000600082015250565b7f4552433732313a20696e76616c696420746f6b656e2049440000000000000000600082015250565b7f4552433732313a20617070726f76616c20746f2063757272656e74206f776e6560008201527f7200000000000000000000000000000000000000000000000000000000000000602082015250565b7f646174613a6170706c69636174696f6e2f6a736f6e3b6261736536342c000000600082015250565b7f4552433732313a2063616c6c6572206973206e6f7420746f6b656e206f776e6560008201527f72206e6f7220617070726f766564000000000000000000000000000000000000602082015250565b7f222c20226465736372697074696f6e223a2022556d6120636f6c6563616f206160008201527f636c616d61646120652066616d6f7361206465204e465473206d61726176696c60208201527f686f736f732e222c2022696d616765223a2022646174613a696d6167652f737660408201527f672b786d6c3b6261736536342c00000000000000000000000000000000000000606082015250565b61370081612fc1565b811461370b57600080fd5b50565b61371781612fd3565b811461372257600080fd5b50565b61372e81612fdf565b811461373957600080fd5b50565b6137458161302b565b811461375057600080fd5b5056fe556d204e465420636f6d20494420257320666f692063756e6861646f20706172612025734142434445464748494a4b4c4d4e4f505152535455565758595a6162636465666768696a6b6c6d6e6f707172737475767778797a303132333435363738392b2fa264697066735822122093438fb6500bc3e9a0fa1dec00e2e30f71c29bc35fa37787293eeaf3609409a364736f6c634300080400333c7376672020786d6c6e733d27687474703a2f2f7777772e77332e6f72672f323030302f7376672720207072657365727665417370656374526174696f3d27784d696e594d696e206d65657427202076696577426f783d273020302033353020333530273e20203c646566733e202020203c6c696e6561724772616469656e742069643d274772616469656e7431273e2020202020203c73746f7020636c6173733d2773746f703127206f66667365743d273025272f3e2020202020203c73746f7020636c6173733d2773746f703227206f66667365743d27353025272f3e2020202020203c73746f7020636c6173733d2773746f703327206f66667365743d2731303025272f3e202020203c2f6c696e6561724772616469656e743e20203c2f646566733e20203c7374796c653e202020202e62617365207b20202020202066696c6c3a20626c75653b202020202020666f6e742d66616d696c793a2073657269663b202020202020666f6e742d73697a653a20323070783b202020202020636f6c6f723a20234646463b202020207d202020202e73746f7031207b2073746f702d636f6c6f723a20707572706c653b207d202020202e73746f7032207b2073746f702d636f6c6f723a2070696e6b3b2073746f702d6f7061636974793a20303b207d202020202e73746f7033207b2073746f702d636f6c6f723a20626c75653b207d2020202020203c2f7374796c653e20203c726563742077696474683d273130302527206865696768743d2731303025272066696c6c3d2775726c28234772616469656e74312927202f3e20203c7465787420202020783d273530252720202020793d273530252720202020636c6173733d27626173652720202020646f6d696e616e742d626173656c696e653d276d6964646c652720202020746578742d616e63686f723d276d6964646c652720203e",
  "linkReferences": {},
  "deployedLinkReferences": {}
}